{
  "_format": "hh-sol-artifact-1",
  "contractName": "ERC20Dummy",
  "sourceName": "contracts/ERC20Dummy.sol",
  "abi": [
    {
      "anonymous": false,
      "inputs": [
        {
          "indexed": true,
          "internalType": "address",
          "name": "owner",
          "type": "address"
        },
        {
          "indexed": true,
          "internalType": "address",
          "name": "spender",
          "type": "address"
        },
        {
          "indexed": false,
          "internalType": "uint256",
          "name": "value",
          "type": "uint256"
        }
      ],
      "name": "Approval",
      "type": "event"
    },
    {
      "anonymous": false,
      "inputs": [
        {
          "indexed": false,
          "internalType": "uint8",
          "name": "version",
          "type": "uint8"
        }
      ],
      "name": "Initialized",
      "type": "event"
    },
    {
      "anonymous": false,
      "inputs": [
        {
          "indexed": true,
          "internalType": "address",
          "name": "from",
          "type": "address"
        },
        {
          "indexed": true,
          "internalType": "address",
          "name": "to",
          "type": "address"
        },
        {
          "indexed": false,
          "internalType": "uint256",
          "name": "value",
          "type": "uint256"
        }
      ],
      "name": "Transfer",
      "type": "event"
    },
    {
      "inputs": [
        {
          "internalType": "string",
          "name": "name",
          "type": "string"
        },
        {
          "internalType": "string",
          "name": "symbol",
          "type": "string"
        },
        {
          "internalType": "uint8",
          "name": "__decimals",
          "type": "uint8"
        }
      ],
      "name": "__initialize_ERC20",
      "outputs": [],
      "stateMutability": "nonpayable",
      "type": "function"
    },
    {
      "inputs": [
        {
          "internalType": "address",
          "name": "owner",
          "type": "address"
        },
        {
          "internalType": "address",
          "name": "spender",
          "type": "address"
        }
      ],
      "name": "allowance",
      "outputs": [
        {
          "internalType": "uint256",
          "name": "",
          "type": "uint256"
        }
      ],
      "stateMutability": "view",
      "type": "function"
    },
    {
      "inputs": [
        {
          "internalType": "address",
          "name": "spender",
          "type": "address"
        },
        {
          "internalType": "uint256",
          "name": "amount",
          "type": "uint256"
        }
      ],
      "name": "approve",
      "outputs": [
        {
          "internalType": "bool",
          "name": "",
          "type": "bool"
        }
      ],
      "stateMutability": "nonpayable",
      "type": "function"
    },
    {
      "inputs": [
        {
          "internalType": "address",
          "name": "account",
          "type": "address"
        }
      ],
      "name": "balanceOf",
      "outputs": [
        {
          "internalType": "uint256",
          "name": "",
          "type": "uint256"
        }
      ],
      "stateMutability": "view",
      "type": "function"
    },
    {
      "inputs": [],
      "name": "decimals",
      "outputs": [
        {
          "internalType": "uint8",
          "name": "",
          "type": "uint8"
        }
      ],
      "stateMutability": "view",
      "type": "function"
    },
    {
      "inputs": [
        {
          "internalType": "address",
          "name": "spender",
          "type": "address"
        },
        {
          "internalType": "uint256",
          "name": "subtractedValue",
          "type": "uint256"
        }
      ],
      "name": "decreaseAllowance",
      "outputs": [
        {
          "internalType": "bool",
          "name": "",
          "type": "bool"
        }
      ],
      "stateMutability": "nonpayable",
      "type": "function"
    },
    {
      "inputs": [
        {
          "internalType": "address",
          "name": "spender",
          "type": "address"
        },
        {
          "internalType": "uint256",
          "name": "addedValue",
          "type": "uint256"
        }
      ],
      "name": "increaseAllowance",
      "outputs": [
        {
          "internalType": "bool",
          "name": "",
          "type": "bool"
        }
      ],
      "stateMutability": "nonpayable",
      "type": "function"
    },
    {
      "inputs": [],
      "name": "name",
      "outputs": [
        {
          "internalType": "string",
          "name": "",
          "type": "string"
        }
      ],
      "stateMutability": "view",
      "type": "function"
    },
    {
      "inputs": [],
      "name": "symbol",
      "outputs": [
        {
          "internalType": "string",
          "name": "",
          "type": "string"
        }
      ],
      "stateMutability": "view",
      "type": "function"
    },
    {
      "inputs": [],
      "name": "totalSupply",
      "outputs": [
        {
          "internalType": "uint256",
          "name": "",
          "type": "uint256"
        }
      ],
      "stateMutability": "view",
      "type": "function"
    },
    {
      "inputs": [
        {
          "internalType": "address",
          "name": "to",
          "type": "address"
        },
        {
          "internalType": "uint256",
          "name": "amount",
          "type": "uint256"
        }
      ],
      "name": "transfer",
      "outputs": [
        {
          "internalType": "bool",
          "name": "",
          "type": "bool"
        }
      ],
      "stateMutability": "nonpayable",
      "type": "function"
    },
    {
      "inputs": [
        {
          "internalType": "address",
          "name": "from",
          "type": "address"
        },
        {
          "internalType": "address",
          "name": "to",
          "type": "address"
        },
        {
          "internalType": "uint256",
          "name": "amount",
          "type": "uint256"
        }
      ],
      "name": "transferFrom",
      "outputs": [
        {
          "internalType": "bool",
          "name": "",
          "type": "bool"
        }
      ],
      "stateMutability": "nonpayable",
      "type": "function"
    }
  ],
  "bytecode": "0x608060405234801561001057600080fd5b50610d97806100206000396000f3fe608060405234801561001057600080fd5b50600436106100b45760003560e01c80633950935111610071578063395093511461014957806370a082311461015c57806395d89b4114610185578063a457c2d71461018d578063a9059cbb146101a0578063dd62ed3e146101b357600080fd5b806306fdde03146100b9578063089d08dc146100d7578063095ea7b3146100ec57806318160ddd1461010f57806323b872dd14610121578063313ce56714610134575b600080fd5b6100c16101c6565b6040516100ce91906109a7565b60405180910390f35b6100ea6100e5366004610a3e565b610258565b005b6100ff6100fa366004610ae4565b610400565b60405190151581526020016100ce565b6035545b6040519081526020016100ce565b6100ff61012f366004610b0e565b61041a565b60655460405160ff90911681526020016100ce565b6100ff610157366004610ae4565b61043e565b61011361016a366004610b4a565b6001600160a01b031660009081526033602052604090205490565b6100c1610460565b6100ff61019b366004610ae4565b61046f565b6100ff6101ae366004610ae4565b6104ea565b6101136101c1366004610b6c565b6104f8565b6060603680546101d590610b9f565b80601f016020809104026020016040519081016040528092919081815260200182805461020190610b9f565b801561024e5780601f106102235761010080835404028352916020019161024e565b820191906000526020600020905b81548152906001019060200180831161023157829003601f168201915b5050505050905090565b600054610100900460ff16158080156102785750600054600160ff909116105b806102925750303b158015610292575060005460ff166001145b6102fa5760405162461bcd60e51b815260206004820152602e60248201527f496e697469616c697a61626c653a20636f6e747261637420697320616c72656160448201526d191e481a5b9a5d1a585b1a5e995960921b60648201526084015b60405180910390fd5b6000805460ff19166001179055801561031d576000805461ff0019166101001790555b6065805460ff191660ff8416179055604080516020601f880181900481028201810190925286815261039d91889088908190840183828082843760009201919091525050604080516020601f8a01819004810282018101909252888152925088915087908190840183828082843760009201919091525061052392505050565b6103b2336a52b7d2dcc80cd2e4000000610558565b80156103f8576000805461ff0019169055604051600181527f7f26b83ff96e1f2b6a682f133852f6798a09c465da95921460cefb38474024989060200160405180910390a15b505050505050565b60003361040e818585610619565b60019150505b92915050565b60003361042885828561073d565b6104338585856107b7565b506001949350505050565b60003361040e81858561045183836104f8565b61045b9190610bd9565b610619565b6060603780546101d590610b9f565b6000338161047d82866104f8565b9050838110156104dd5760405162461bcd60e51b815260206004820152602560248201527f45524332303a2064656372656173656420616c6c6f77616e63652062656c6f77604482015264207a65726f60d81b60648201526084016102f1565b6104338286868403610619565b60003361040e8185856107b7565b6001600160a01b03918216600090815260346020908152604080832093909416825291909152205490565b600054610100900460ff1661054a5760405162461bcd60e51b81526004016102f190610bfa565b6105548282610962565b5050565b6001600160a01b0382166105ae5760405162461bcd60e51b815260206004820152601f60248201527f45524332303a206d696e7420746f20746865207a65726f20616464726573730060448201526064016102f1565b80603560008282546105c09190610bd9565b90915550506001600160a01b0382166000818152603360209081526040808320805486019055518481527fddf252ad1be2c89b69c2b068fc378daa952ba7f163c4a11628f55a4df523b3ef910160405180910390a35050565b6001600160a01b03831661067b5760405162461bcd60e51b8152602060048201526024808201527f45524332303a20617070726f76652066726f6d20746865207a65726f206164646044820152637265737360e01b60648201526084016102f1565b6001600160a01b0382166106dc5760405162461bcd60e51b815260206004820152602260248201527f45524332303a20617070726f766520746f20746865207a65726f206164647265604482015261737360f01b60648201526084016102f1565b6001600160a01b0383811660008181526034602090815260408083209487168084529482529182902085905590518481527f8c5be1e5ebec7d5bd14f71427d1e84f3dd0314c0f7b2291e5b200ac8c7c3b925910160405180910390a3505050565b600061074984846104f8565b905060001981146107b157818110156107a45760405162461bcd60e51b815260206004820152601d60248201527f45524332303a20696e73756666696369656e7420616c6c6f77616e636500000060448201526064016102f1565b6107b18484848403610619565b50505050565b6001600160a01b03831661081b5760405162461bcd60e51b815260206004820152602560248201527f45524332303a207472616e736665722066726f6d20746865207a65726f206164604482015264647265737360d81b60648201526084016102f1565b6001600160a01b03821661087d5760405162461bcd60e51b815260206004820152602360248201527f45524332303a207472616e7366657220746f20746865207a65726f206164647260448201526265737360e81b60648201526084016102f1565b6001600160a01b038316600090815260336020526040902054818110156108f55760405162461bcd60e51b815260206004820152602660248201527f45524332303a207472616e7366657220616d6f756e7420657863656564732062604482015265616c616e636560d01b60648201526084016102f1565b6001600160a01b0380851660008181526033602052604080822086860390559286168082529083902080548601905591517fddf252ad1be2c89b69c2b068fc378daa952ba7f163c4a11628f55a4df523b3ef906109559086815260200190565b60405180910390a36107b1565b600054610100900460ff166109895760405162461bcd60e51b81526004016102f190610bfa565b60366109958382610ca1565b5060376109a28282610ca1565b505050565b600060208083528351808285015260005b818110156109d4578581018301518582016040015282016109b8565b506000604082860101526040601f19601f8301168501019250505092915050565b60008083601f840112610a0757600080fd5b50813567ffffffffffffffff811115610a1f57600080fd5b602083019150836020828501011115610a3757600080fd5b9250929050565b600080600080600060608688031215610a5657600080fd5b853567ffffffffffffffff80821115610a6e57600080fd5b610a7a89838a016109f5565b90975095506020880135915080821115610a9357600080fd5b50610aa0888289016109f5565b909450925050604086013560ff81168114610aba57600080fd5b809150509295509295909350565b80356001600160a01b0381168114610adf57600080fd5b919050565b60008060408385031215610af757600080fd5b610b0083610ac8565b946020939093013593505050565b600080600060608486031215610b2357600080fd5b610b2c84610ac8565b9250610b3a60208501610ac8565b9150604084013590509250925092565b600060208284031215610b5c57600080fd5b610b6582610ac8565b9392505050565b60008060408385031215610b7f57600080fd5b610b8883610ac8565b9150610b9660208401610ac8565b90509250929050565b600181811c90821680610bb357607f821691505b602082108103610bd357634e487b7160e01b600052602260045260246000fd5b50919050565b8082018082111561041457634e487b7160e01b600052601160045260246000fd5b6020808252602b908201527f496e697469616c697a61626c653a20636f6e7472616374206973206e6f74206960408201526a6e697469616c697a696e6760a81b606082015260800190565b634e487b7160e01b600052604160045260246000fd5b601f8211156109a257600081815260208120601f850160051c81016020861015610c825750805b601f850160051c820191505b818110156103f857828155600101610c8e565b815167ffffffffffffffff811115610cbb57610cbb610c45565b610ccf81610cc98454610b9f565b84610c5b565b602080601f831160018114610d045760008415610cec5750858301515b600019600386901b1c1916600185901b1785556103f8565b600085815260208120601f198616915b82811015610d3357888601518255948401946001909101908401610d14565b5085821015610d515787850151600019600388901b60f8161c191681555b5050505050600190811b0190555056fea2646970667358221220e9f5efb80020314022388abcf0f51f59d23569b987129478297f22126716dcf864736f6c63430008110033",
  "linkReferences": {},
  "deployedLinkReferences": {}
}